:020000040800F2
:1000000000000220213F0008AD3E0008AF3E00087E
:10001000B13E0008B33E0008B53E000800000000F5
:10002000000000000000000000000000912900080E
:10003000B73E000800000000312A0008B93E000861
:10004000713F0008713F0008713F0008713F0008D0
:10005000713F0008713F0008713F0008713F0008C0
:10006000713F0008713F0008713F0008713F0008B0
:10007000713F0008713F0008713F0008713F0008A0
:10008000713F0008713F0008713F0008713F000890
:10009000713F0008713F0008713F0008713F000880
:1000A000713F0008713F0008713F0008713F000870
:1000B000713F0008713F0008713F0008713F000860
:1000C000713F0008713F0008713F0008713F000850
:1000D000713F0008713F0008713F0008713F000840
:1000E000713F0008713F0008713F0008713F000830
:1000F000713F0008713F0008713F0008713F000820
:10010000713F0008713F0008713F0008713F00080F
:10011000C53E0008713F0008713F0008713F0008AC
:10012000713F0008713F0008713F0008713F0008EF
:10013000713F0008713F0008713F0008713F0008DF
:10014000713F0008713F0008713F0008713F0008CF
:10015000713F0008713F0008713F0008713F0008BF
:10016000713F0008713F0008713F0008713F0008AF
:10017000713F0008713F0008713F00080000000057
:08018000713F0008713F000807
:1001900010B5054C237833B9044B13B10448AFF3C1
:1001A00000800123237010BD080000200000000023
:1001B000D43F00080C4B43B10C480D4910B5AFF3C8
:1001C00000800C48036823B910BD0A48036833B99E
:1001D0007047094B002BF7D0BDE810401847064B7D
:1001E000002BF5D0184700BF00000000D43F0008E6
:1001F0000C000020080000200000000010B504469C
:10020000074B1868074BA3FB0030800900F00EFB7A
:10021000002221464FF0FF3000F0CAFA002010BD46
:1002200004000020D34D621008B50B4B1A6842F44D
:1002300000721A601A6842F480621A601A6842F406
:1002400080721A60032000F0A1FA0F20FFF7D6FF9A
:1002500003F0A8FD002008BD003C0240024A1368DC
:1002600001331360704700BF703D0020014B1868D8
:10027000704700BF703D00204C4B5A6822F440325A
:100280005A605A6841680A435A600268536823F406
:100290008073536002685368016943EA0123536025
:1002A0000268536823F040735360026853688168A2
:1002B0000B4353600268936823F400639360026801
:1002C0009368C1680B439360826A394B9A4249D064
:1002D0000268936823F07063936002689368816A90
:1002E0000B4393600268936823F040539360026865
:1002F0009368C16A0B4393600268936823F002031A
:10030000936002689368816943EA41039360036ADA
:10031000002B32D10268536823F4006353600268F3
:10032000D36A23F47003D3620168CB6AC269013ACD
:1003300043EA0253CB620268936823F4007393602C
:1003400002689368016B43EA4123936002689368F3
:1003500023F48063936002689368416943EA8123D0
:10036000936070470268936823F07063936002683B
:10037000936823F040539360BEE70268536843F4E8
:10038000006353600268536823F460435360436A18
:10039000013B4FF4604292FAA2F2B2FA82F2934029
:1003A000026851680B435360B9E700BF0023014066
:1003B0000100000F30B310B50446036C43B1236C49
:1003C00013F0100F0AD00120002384F83C3010BD38
:1003D000436480F83C3003F015FDF0E7236C23F410
:1003E000885323F0020343F0020323642046FFF7FF
:1003F00043FF00206064236C23F0030343F00103F8
:100400002364E1E70120704782B00023019390F854
:100410003C30012B63D0012380F83C3003689A689C
:1004200012F0010F13D19A6842F001029A60304B2A
:100430001B68304AA2FB03239B0C03EB430301938D
:1004400002E0019B013B0193019B002BF9D1026863
:10045000936813F0010F45D0036C23F4E06323F09D
:10046000010343F480730364536813F4806F05D071
:10047000036C23F4405343F480530364036C13F47C
:10048000805F19D0436C23F006034364002380F897
:100490003C306FF022031360174B5B6813F01F0FA3
:1004A0000DD103689A6812F0405F1DD19A6842F03E
:1004B00080429A60002013E000234364E6E703686B
:1004C0000E4A934201D000200AE09A6812F0405F81
:1004D0000CD19A6842F080429A60002000E002202D
:1004E00002B070470020FBE70020F9E70020F7E7A3
:1004F0000400002083DE1B43002301400020014054
:1005000090F83C30012B19D0012380F83C30026870
:10051000936823F00103936003689B6813F0010F55
:1005200007D1036C23F4885323F0010343F0010344
:100530000364002380F83C3018467047022070475F
:1005400003689A6812F4806F03D09B6813F4807F6D
:100550001CD170B50D460446FFF788FE0646236899
:100560001A6812F0020F1AD1B5F1FF3FF7D025B18A
:10057000FFF77CFE801B8542F1D2236C43F004031D
:100580002364002384F83C30032070BD036C43F0E7
:1005900020030364002380F83C30012070476FF093
:1005A00012021A60236C43F40073236423689A6870
:1005B00012F0405F17D1A269BAB9DA6A12F4700F6B
:1005C00003D09B6813F4806F11D1236C23F48073E4
:1005D0002364236C13F4805F0BD1236C43F001037D
:1005E0002364002070BD002070BD002070BD00207D
:1005F00070BD002070BD0368D86C704730B482B005
:100600000023019390F83C30012B00F0B7800123C8
:1006100080F83C300B68092B3ED90568EA689BB22C
:1006200003EB43031E3B072404FA03F322EA03030C
:10063000EB600568EA688C680B8803EB43031E3B9C
:1006400004FA03F31343EB604B68062B3AD80568B2
:100650006A6B03EB8303053B1F2404FA03F322EACE
:1006600003036B6305686A6B4B6803EB8303053B0D
:100670000C8804FA03F313436B630268404B9A42FD
:1006800050D002683E4B9A4255D0002380F83C304F
:10069000184602B030BC704705682A699BB203EB6C
:1006A0004303072404FA03F322EA03032B610568DA
:1006B0002A698C680B8803EB430304FA03F31343A2
:1006C0002B61C1E70C2B16D805682A6B03EB83035B
:1006D000233B1F2404FA03F322EA03032B63056878
:1006E0002A6B4B6803EB8303233B0C8804FA03F368
:1006F00013432B63C1E70568EA6A03EB8303413BBD
:100700001F2404FA03F322EA0303EB620568EA6A92
:100710004B6803EB8303413B0C8804FA03F3134358
:10072000EB62AAE70B68122BABD1164A536843F46D
:1007300080035360A5E70B68103B012BA5D8114A35
:10074000536843F4000353600B68102B9DD10E4B8C
:100750001B6802F1467202F52E3202F28332A2FBCE
:1007600003239B0C03EB83035A00019202E0019BDD
:10077000013B0193019B002BF9D186E7022088E71A
:10078000002001400023014004000020074AD368F4
:1007900023F4E0631B041B0C000200F4E060184328
:1007A00040F0BF6040F40030D060704700ED00E0E2
:1007B00030B4164BDB68C3F30223C3F10704042CE7
:1007C00028BF04241D1D062D17D9033B012505FA5A
:1007D00004F4013C2140994005FA03F3013B134026
:1007E000194300280BDB0901C9B200F1604000F594
:1007F000614080F8001330BC70470023E6E700F04A
:100800000F000901C9B2024B1954F4E700ED00E0F2
:1008100014ED00E0420900F01F00012303FA00F08C
:10082000014B43F82200704700E100E00138B0F1CD
:10083000807F0AD2064B5860F021064A82F82310C6
:100840000020986007221A6070470120704700BF9F
:1008500010E000E000ED00E0042805D0054A136830
:1008600023F0040313607047024A136843F0040343
:100870001360704710E000E090F83530DBB2022BD7
:1008800003D08023436501207047052380F835306D
:100890000268136823F00103136000207047000012
:1008A000F0B583B000244BE04FEAD40E0EF1080EF1
:1008B00050F82E2004F00706B6000F27B74022EAB2
:1008C00007020F6907FA06F6324340F82E2046E089
:1008D000072600E0002606FA0EF6324302335E4E8B
:1008E00046F823205D4B1A68EB4302EA03064F6883
:1008F00017F4803F01D045EA0206584A1660526854
:1009000003EA02064F6817F4003F01D045EA0206E9
:10091000524A5660926803EA02064F6817F4801F35
:1009200001D045EA02064D4A9660D26813404E68EF
:1009300016F4001F01D045EA0203484AD36001348F
:100940000F2C00F286800123A3400A6803EA020507
:10095000AB42F4D14A68022AA6D0122AA4D0066873
:100960004FEA440E032202FA0EF2D24316404F68B9
:1009700007F0030707FA0EF73E4306604E68771E3E
:10098000012F03D9112E01D0122E0FD186681640E7
:10099000CF6807FA0EF73E438660466826EA0303EF
:1009A0004E68C6F30016A64033434360C3681A403E
:1009B0008B6803FA0EF31A43C2604B6813F0805F32
:1009C000BDD000230193264B5A6C42F480425A64F6
:1009D0005B6C03F480430193019BA3089E1C1E4A99
:1009E00052F8262004F003064FEA860E0F2606FA78
:1009F0000EF622EA06021B4FB8423FF46BAF1A4EC6
:100A0000B0421AD006F58066B04218D006F580666E
:100A1000B04216D006F58066B04214D006F5806666
:100A2000B04212D006F58066B04210D006F580665E
:100A3000B0423FF44DAF08264DE701264BE70226B2
:100A400049E7032647E7042645E7052643E7062648
:100A500041E703B0F0BD00BF00380140003C014059
:100A600000380240000002400004024012B90904AC
:100A700081617047816170474369594041617047A6
:100A800030B583B00446036813F0010F3BD0A94B87
:100A90009B6803F00C03042B2CD0A64B9B6803F03F
:100AA0000C03082B21D06368B3F5803F4FD0B3F51A
:100AB000A02F52D09F4B1A6822F480321A601A6815
:100AC00022F480221A606368002B50D0FFF7CEFB1F
:100AD0000546984B1B6813F4003F14D1FFF7C6FB83
:100AE000401B6428F5D9032099E1924B5B6813F40D
:100AF000800FD8D08F4B1B6813F4003F03D063687E
:100B0000002B00F08981236813F0020F5BD0894B22
:100B10009B6813F00C0F3ED0864B9B6803F00C03D0
:100B2000082B33D0E368002B74D00122824B1A606B
:100B3000FFF79CFB05467F4B1B6813F0020F5AD151
:100B4000FFF794FB401B0228F5D9032067E1794A9F
:100B5000136843F480331360B5E7764B1A6842F4A8
:100B600080221A601A6842F480321A60ABE7FFF7FD
:100B70007DFB05466F4B1B6813F4003FC3D0FFF7A6
:100B800075FB401B6428F5D9032048E1694B5B687D
:100B900013F4800FC6D1674B1B6813F0020F04D00B
:100BA000E368012B01D0012039E16248036823F09A
:100BB000F8032169F82292FAA2F2B2FA82F201FA5B
:100BC00002F213430360236813F0080F46D06369F1
:100BD00093B30122594B1A60FFF748FB0546554B6A
:100BE0005B6F13F0020F39D1FFF740FB401B022867
:100BF000F5D9032013E14F48036823F0F803216976
:100C0000F82292FAA2F2B2FA82F201FA02F2134345
:100C10000360D8E70022484B1A60FFF727FB054620
:100C2000444B1B6813F0020FCDD0FFF71FFB401B96
:100C30000228F5D90320F2E00022404B1A60FFF7AA
:100C400015FB05463B4B5B6F13F0020F06D0FFF719
:100C50000DFB401B0228F5D90320E0E0236813F0C8
:100C6000040F20D1A369002B00F0D880314A92688C
:100C700002F00C02082A00F0D480022B00F08080E1
:100C800000222F4B1A60FFF7F1FA0446294B1B682C
:100C900013F0007F00F0BE80FFF7E8FA001B022887
:100CA000F4D90320BBE000230193224B1A6C42F0DD
:100CB00080521A641B6C03F080530193019B214AFC
:100CC000136843F480731360FFF7D0FA05461D4B99
:100CD0001B6813F4807F06D1FFF7C8FA401B022877
:100CE000F5D903209BE0A368012B1DD0052B2BD049
:100CF000104B1A6F22F001021A671A6F22F00402D9
:100D00001A67A36853B3FFF7B1FA0546094B1B6F87
:100D100013F0020FA6D1FFF7A9FA401B41F2883366
:100D20009842F3D903207AE0024A136F43F001039B
:100D30001367E6E70038024000004742800E474252
:100D40006000474200700040374B1A6F42F00402C7
:100D50001A671A6F42F001021A67D2E7FFF786FAA4
:100D60000546314B1B6F13F0020F3FF47BAFFFF7CB
:100D70007DFA401B41F288339842F2D903204EE0BD
:100D800000222A4B1A60FFF771FA0546264B1B68B2
:100D900013F0007F06D0FFF769FA401B0228F5D94F
:100DA00003203CE0E369226A1343616A47F6C0729C
:100DB00092FAA2F2B2FA82F201FA02F21343A26AA2
:100DC0005208013A4FF4403191FAA1F1B1FA81F1A0
:100DD0008A401343E16A4FF0706292FAA2F2B2FACB
:100DE00082F201FA02F213430F4A536001220F4BC1
:100DF0001A60FFF73BFA04460B4B1B6813F0007FA9
:100E000006D1FFF733FA001B0228F5D9032006E0CC
:100E1000002004E0002002E0012000E0002003B0F8
:100E200030BD0120FBE700BF0038024060004742B0
:100E3000214B9B6803F00C03042B3AD0082B01D004
:100E40001E4870471C4B586800F03F005B6813F465
:100E5000800F1ED01A4AB2FBF0F2174B586847F6C3
:100E6000C073184093FAA3F3B3FA83F3D84000FB9E
:100E700002F0114B5B6803F440334FF4403292FAB6
:100E8000A2F2B2FA82F2D34001335B00B0FBF3F07E
:100E900070470A4AB2FBF0F2074B586847F6C07336
:100EA000184093FAA3F3B3FA83F3D84000FB02F09F
:100EB000DFE70348704700BF003802400024F40019
:100EC00040787D01624B1B6803F00F038B4209D20F
:100ED000CBB25F4A1370136803F00F03994201D03D
:100EE0000120704770B5036813F0020F06D0594A0D
:100EF000936823F0F0038468234393600D4604460F
:100F0000036813F0010F64D04368012B26D09A1EAA
:100F1000012A2AD94F4A126812F0020F00F0968077
:100F20004C498A6822F0030213438B60FFF79EF955
:100F300006466368012B1FD0022B2CD0032B39D01F
:100F4000444B9B6813F00C0F43D0FFF78FF9801BC5
:100F500041F288339842F3D9032070BD3D4A1268AC
:100F600012F4003FDCD1012070BD3A4A126812F041
:100F7000007FD5D1012070BD364B9B6803F00C0378
:100F8000042B26D0FFF772F9801B41F28833984278
:100F9000F2D9032070BD2F4B9B6803F00C03082B84
:100FA00017D0FFF763F9801B41F288339842F2D9DA
:100FB000032070BD274B9B6803F00C030C2B08D05B
:100FC000FFF754F9801B41F288339842F2D903208D
:100FD00070BD1F4B1B6803F00F039D4209D2EAB29C
:100FE0001B4B1A701B6803F00F039D4201D00120B8
:100FF00070BD236813F0040F06D0164A936823F4DB
:10100000E053E1680B439360236813F0080F07D0A7
:10101000104A936823F46043216943EAC103936053
:10102000FFF706FF0B4B9B6803F0F003F02292FAE8
:10103000A2F2B2FA82F2D340074AD35CD840074BFF
:1010400018600F20FFF7DAF8002070BD012070BD96
:10105000003C0240003802405840000804000020D4
:10106000014B1868704700BF0400002008B5FFF767
:10107000F7FF074B9B6803F4E0534FF4E05292FAFA
:10108000A2F2B2FA82F2D340024AD35CD84008BD41
:10109000003802406840000808B5FFF7E1FF074B41
:1010A0009B6803F460434FF4604292FAA2F2B2FAF2
:1010B00082F2D340024AD35CD84008BD00380240D7
:1010C000684000080268D36823F49073D360026814
:1010D000536923F001035361202380F83A307047AD
:1010E00090F83930DBB2212B01D0022070478368A1
:1010F000B3F5805F17D00268036A591C01621B7840
:101100005360C38C9BB2013B9BB2C384DBB90268C2
:10111000D36823F08003D3600268D36843F04003B0
:10112000D36000207047036A02681B88C3F308037A
:10113000536003691BB9036A02330362E1E7036A80
:1011400001330362DDE70020704700002DE9F0471E
:1011500004460268136923F44053C1680B431361CA
:101160000168CB6823F4164323F00C0382680069FE
:10117000024360690243E06902431343CB60226883
:10118000536923F44073A1690B435361E369B3F5D9
:10119000004F62D0D4F80080BB4B984500F01B8113
:1011A00003F58063984500F01681FFF75FFF00EBC1
:1011B000800000EB80006568AD00B0FBF5F5B34F33
:1011C000A7FB05356D092E01FFF750FF00EB8000EE
:1011D00000EB80006568AD00B0FBF5FAFFF746FF55
:1011E00000EB800000EB80006568AD00B0FBF5F51A
:1011F000A7FB05356D094FF0640909FB15A52D0105
:101200003235A7FB05356D0905F0F0053544FFF7CC
:101210002DFF00EB800000EB80006668B600B0FB9D
:10122000F6F6FFF723FF00EB800000EB8000636819
:101230009B00B0FBF3F0A7FB0030400909FB1069ED
:101240004FEA091909F13209A7FB0937C7F3431718
:101250002F44C8F80870BDE8F087D4F8008003F187
:10126000804303F5104398455CD003F580639845AF
:1012700058D0FFF7FBFE00EB800000EB80006568B4
:101280006D00B0FBF5F5814FA7FB05356D092E010B
:10129000FFF7ECFE00EB800000EB800065686D005E
:1012A000B0FBF5FAFFF7E2FE00EB800000EB8000F8
:1012B00065686D00B0FBF5F5A7FB05356D094FF0CE
:1012C000640909FB15A5ED003235A7FB05356D094D
:1012D0006D0005F4F8753544FFF7C8FE00EB80009B
:1012E00000EB800066687600B0FBF6F6FFF7BEFE06
:1012F00000EB800000EB800063685B00B0FBF3F361
:10130000A7FB03235B0909FB13694FEAC90909F12C
:101310003209A7FB0937C7F342172F44C8F80870F2
:10132000BDE8F087FFF7B8FE00EB800000EB80001F
:1013300065686D00B0FBF5F5544FA7FB05356D09E9
:101340002E01FFF7A9FE00EB800000EB800065682E
:101350006D00B0FBF5FAFFF79FFE00EB800000EB9D
:10136000800065686D00B0FBF5F5A7FB05356D09DC
:101370004FF0640909FB15A5ED003235A7FB0535D3
:101380006D096D0005F4F8753544FFF785FE00EB37
:10139000800000EB800066687600B0FBF6F6FFF791
:1013A0007BFE00EB800000EB800063685B00B0FB1D
:1013B000F3F3A7FB03235B0909FB13694FEAC90990
:1013C00009F13209A7FB0937C7F342172F44C8F8C0
:1013D0000870BDE8F087FFF75FFE00EB800000EBD0
:1013E00080006568AD00B0FBF5F5284FA7FB05351B
:1013F0006D092E01FFF750FE00EB800000EB80002E
:101400006568AD00B0FBF5FAFFF746FE00EB800023
:1014100000EB80006568AD00B0FBF5F5A7FB053576
:101420006D094FF0640909FB15A52D013235A7FBA5
:1014300005356D0905F0F0053544FFF72DFE00EB8D
:10144000800000EB80006668B600B0FBF6F6FFF7A0
:1014500023FE00EB800000EB800063689B00B0FB84
:10146000F3F3A7FB03235B0909FB13694FEA09198F
:1014700009F13209A7FB0937C7F343172F44C8F80E
:101480000870BDE8F08700BF001001401F85EB51D8
:1014900058B310B5044690F839300BB3242384F8C0
:1014A00039302268D36823F40053D3602046FFF715
:1014B0004DFE2268136923F4904313612268536937
:1014C00023F02A0353612268D36843F40053D360A6
:1014D0000020E063202384F8393084F83A3010BDCE
:1014E00080F8383002F0B2FCD8E70120704790F85D
:1014F0003930DBB2202B01D002207047A9B1B2B144
:1015000090F83830012B14D001628284C284002309
:10151000C363212280F8392080F838300168CA6816
:1015200042F08002CA6018467047012070470120CF
:10153000704702207047704708B50168CB6823F0F8
:101540004003CB60202380F83930FFF7F4FF002000
:1015500008BD704708B590F83A30DBB2222B01D0B5
:10156000022008BD8368B3F5805F0FD003690BBB11
:10157000836A5A1C8262026852681A70C38D9BB2D9
:10158000013B9BB2C385F3B1002008BD826A0369A9
:1015900043B903685B68C3F308031380836A0233AB
:1015A0008362EBE703685B68DBB21380836A013315
:1015B0008362E3E7826A531C836203685B6803F01B
:1015C0007F031370DAE70268D36823F49073D36063
:1015D0000268536923F001035361202380F83A30F5
:1015E000FFF7B7FF002008BD7047000010B50446A4
:1015F00002681368D168526913F00F0005D113F027
:10160000200F02D011F0200F53D1002867D012F024
:10161000010202D111F4907F61D013F0010F06D0C6
:1016200011F4807F03D0E06B40F00100E06313F021
:10163000040F04D01AB1E06B40F00200E06313F035
:10164000020F04D01AB1E06B40F00400E06313F025
:10165000080F04D01AB1E26B42F00802E263E26BB9
:10166000002A48D013F0200F02D011F0200F24D10F
:1016700023685B6903F04003E26B12F0080F00D1AE
:101680003BB32046FFF71EFD23685A6912F0400F56
:101690001BD05A6922F040025A61636B8BB11A4A1F
:1016A0001A65606BFFF7E8F828B3606B036D984725
:1016B00010BD2046FFF74EFF10BD2046FFF74AFF42
:1016C000D6E72046FFF790FF10BD2046FFF78CFFBE
:1016D00010BD2046FFF788FF0023E36310BD13F021
:1016E000800F02D011F0800F06D113F0400F02D00E
:1016F00011F0400F04D110BD2046FFF7F1FC10BDE2
:101700002046FFF719FFF6E70D17000808B5806BB4
:101710000023C385C384FFF767FF08BD842801D079
:10172000033070470020704708B500F0EBFC002044
:1017300008BDF0B585B00F46446805680669B0F984
:101740000800FFF7EBFF03AB019300903B46B2B2FA
:101750002946204600F060FC012802D1039805B01C
:10176000F0BD0020FBE708B5034600B90123184689
:1017700000F01AFE002008BD08B50022416800688C
:1017800000F03EF908BD08B500F0DEFF012801D0E9
:1017900001F080F908BD00F1080343604FF0FF320B
:1017A0008260C3600361002303607047002303610C
:1017B000704743684B609A688A609A685160996084
:1017C0000861036801330360704730B40D68B5F1F8
:1017D000FF3F02D000F1080202E0026904E01A466D
:1017E00053681C68A542FAD253684B6099608A60BE
:1017F0005160086103680133036030BC70470369BE
:101800004268816891608268416851605A6890427C
:1018100005D000220261186801381860704782689C
:101820005A60F6E710B5044601F0C4F8A26BE36B0A
:101830009A4204D0002401F0DFF8204610BD0124B4
:10184000F9E710B5044601F0B5F8A36B23B1002405
:1018500001F0D2F8204610BD0124F9E770B5044626
:101860001646856B026C4AB9036853BB406800F0AA
:10187000D3FF002363600135A56370BD6EB9806836
:1018800002F09CFB226CA3681344A360626893423D
:1018900019D32368A3600020EDE7C06802F08EFB37
:1018A000236C5B42E2681A44E26021688A4202D2F9
:1018B00062681344E360022E07D145B1013D002068
:1018C000D9E70020D7E70020D5E70020D3E70020A4
:1018D000D1E7026C72B110B50346C4681444C46009
:1018E0004068844201D31868D8600846D96802F07D
:1018F00065FB10BD704738B5054601F05BF895F8FB
:10190000454064B201E0013C64B2002C0ADD6B6A20
:1019100043B105F1240000F079FE0028F3D000F077
:101920000BFFF0E7FF2385F8453001F065F801F083
:1019300041F895F8444064B201E0013C64B2002CE7
:101940000ADD2B6943B105F1100000F05FFE0028AD
:10195000F3D000F0F1FEF0E7FF2385F8443001F00A
:101960004BF838BD38B530B304460D4601F022F8C7
:101970002168E26B236C03FB021060600020A0630F
:10198000A160013A02FB0313E360FF2384F84430B3
:1019900084F84530C5B92369F3B104F1100000F0B3
:1019A00035FEC8B14FF080520D4B1A60BFF34F8F18
:1019B000BFF36F8F10E04FF0500383F31188BFF334
:1019C0006F8FBFF34F8FFEE704F11000FFF7E3FEC8
:1019D00004F12400FFF7DFFE01F00EF8012038BD0E
:1019E00004ED00E010B5029B0C4639B11A60D863D3
:1019F0001C6401211846FFF7B5FF10BD1B60F6E718
:101A000040B94FF0500383F31188BFF36F8FBFF3DA
:101A10004F8FFEE7F0B583B0054611B101FB00F032
:101A200000E0002017460C46483001F057F9064602
:101A300038B100903B4600F1480221462846FFF7A6
:101A4000D1FF304603B0F0BDF0B585B0019260B172
:101A5000044699B10125BDB94FF0500383F31188B5
:101A6000BFF36F8FBFF34F8FFEE74FF0500383F349
:101A70001188BFF36F8FBFF34F8FFEE7026C0AB977
:101A80000125E8E70025E6E7022B09D06DB94FF004
:101A9000500383F31188BFF36F8FBFF34F8FFEE7BF
:101AA000E26B012AF2D00025F0E71E460F4600F057
:101AB0004BFE10B9019B03B1002545B94FF050030F
:101AC00083F31188BFF36F8FBFF34F8FFEE70025BD
:101AD0002CE0324639462046FFF7C0FE636A8BB1E0
:101AE00004F1240000F092FD38B14FF08052374BE2
:101AF0001A60BFF34F8FBFF36F8F00F07DFF01209F
:101B000005B0F0BD0028F8D04FF080522F4B1A607E
:101B1000BFF34F8FBFF36F8FEFE700F06DFF002033
:101B2000EEE72046FFF7E7FE00F0C4FB00F042FFBF
:101B3000A26BE36B9A42CCD3022ECAD0019B002B3E
:101B4000EBD01DB902A800F0A3FD012500F054FF61
:101B500000F012FB00F02EFF94F844305BB2B3F1BA
:101B6000FF3F02D1002384F8443094F845305BB243
:101B7000B3F1FF3F02D1002384F8453000F03CFF71
:101B800001A902A800F098FDC8B92046FFF74AFE57
:101B90000028C6D0019904F1100000F01DFD204678
:101BA000FFF7A9FE00F086FB0028BFD14FF080525E
:101BB000064B1A60BFF34F8FBFF36F8FB6E7204617
:101BC000FFF799FE00F076FB002099E704ED00E0B6
:101BD0002DE9F04184B0019260B1044699B101252C
:101BE000BDB94FF0500383F31188BFF36F8FBFF37C
:101BF0004F8FFEE74FF0500383F31188BFF36F8FD1
:101C0000BFF34F8FFEE7026C0AB90125E8E7002514
:101C1000E6E71F46884600F097FD10B9019B03B127
:101C2000002545B94FF0500383F31188BFF36F8F40
:101C3000BFF34F8FFEE700265DE0E6684146204691
:101C4000FFF747FEDFB9013DA563236813B900F034
:101C50003FFE6060236963B104F1100000F0D6FC20
:101C600038B14FF08052454B1A60BFF34F8FBFF32E
:101C70006F8F00F0C1FE012004B0BDE8F081E66086
:101C8000636A002BF5D004F1240000F0BFFC0028AB
:101C9000EFD04FF08052394B1A60BFF34F8FBFF334
:101CA0006F8FE6E700F0A8FE0020E5E702A800F04D
:101CB000EFFC012629E0002384F8443031E00023C2
:101CC00084F8453033E000F075FE606800F04CFDAC
:101CD00000F092FE3BE02046FFF70DFE00F0EAFA2E
:101CE00009E02046FFF707FE00F0E4FA2046FFF780
:101CF000A8FD002840D100F05DFEA56B002D9CD111
:101D0000019B002BCED0002ED0D000F075FE00F04D
:101D100033FA00F04FFE94F844305BB2B3F1FF3F6A
:101D2000C9D094F845305BB2B3F1FF3FC7D000F0A3
:101D300063FE01A902A800F0BFFC0028D1D1204613
:101D4000FFF77FFD0028C6D02368002BBBD0019988
:101D500004F1240000F040FC2046FFF7CCFD00F029
:101D6000A9FA0028C7D14FF08052044B1A60BFF384
:101D70004F8FBFF36F8FBEE700207DE704ED00E0DB
:101D8000024670B141690F4B994213D00023ABB1A9
:101D9000926A0D498A4213D002B1002363B1012037
:101DA00070474FF0500383F31188BFF36F8FBFF379
:101DB0004F8FFEE70123EAE70020704700207047BD
:101DC000002070472400002038000020094B9B6A47
:101DD0001B6843B9012343B9064B9A6AD268D2689B
:101DE0005268DA6270470023F5E74FF0FF32014B8B
:101DF000DA6270472400002010B50446006B00F042
:101E0000F3FF204600F0F0FF10BD2DE9F0478046BB
:101E10009946089D099F0A9C266B02F18042013A6F
:101E200006EB820626F0070600230F2B07D8C85CB6
:101E3000E21882F83400CA5C0AB10133F5E70023E6
:101E400084F84330062D00D90625E56265644FF01D
:101E5000000AC4F848A0201DFFF7A8FC04F11800F0
:101E6000FFF7A4FC2461C5F10705A5616462C4F80D
:101E70004CA084F850A04A464146304600F06CFD24
:101E8000206007B13C60BDE8F087000070B5002419
:101E900007E004EB8402930010481844FFF77BFC32
:101EA0000134062CF5D90E4C04F1BC063046FFF780
:101EB00072FC04F1D0052846FFF76DFC04F1140014
:101EC000FFF769FC04F1E400FFF765FC2046FFF72B
:101ED00062FCA662C4F8F85070BD00BF5400002038
:101EE0002400002038B5054600F064FD264BD3F8E9
:101EF000FC200132C3F8FC20D3F80031002B38D08D
:101F0000214BD3F804314BB91F4BD3F80031DA6AB7
:101F1000EB6A9A4202D81C4BC3F800511A4CD4F811
:101F200008310133C4F80831EB6A01229A40D4F831
:101F30000C110A43C4F80C2104F1300003EB8303B5
:101F40009A00291D1044FFF734FC00F055FDD4F829
:101F500004316BB1D4F80031DA6AEB6A9A4207D2E5
:101F60004FF08052094B1A60BFF34F8FBFF36F8F52
:101F700038BD054BC3F80051D3F8FC30012BCDD14F
:101F8000FFF784FFCAE700BF2400002004ED00E053
:101F900070B504460E461F4BD3F81051D3F800011C
:101FA0000430FFF72CFC60B91A4BD3F80021D16A3A
:101FB000012202FA01F1D3F80C2122EA0102C3F84E
:101FC0000C21B4F1FF3F12D02C44124BD3F8003156
:101FD0005C60A54214D80F4DA86AD5F800110431F1
:101FE000FFF7F3FBEB6A9C4200D2EC6270BD002E5F
:101FF000EAD00848D0F800110431FFF7DAFB70BDD1
:10200000044BD3F8F800D3F800110431FFF7DDFBDF
:1020100070BD00BF240000202DE9F04385B00646C6
:102020000F4615469846900000F058FE00B38146D2
:10203000542000F053FE0446B0B1C0F83090CCB14B
:102040000023039302940D9B01930C9B0093434642
:102050002A4639463046FFF7D8FE2046FFF742FFB2
:10206000012005B0BDE8F083484600F0BDFEE6E77C
:102070000024E4E74FF0FF30F3E7000078B170B5DB
:1020800004461E4BD3F80031984207D000F092FC72
:102090002046FFF775FE58B900F0AEFC70BD4FF05A
:1020A000500383F31188BFF36F8FBFF34F8FFEE7A9
:1020B000261D3046FFF7A3FBE36A01229A400F4D2D
:1020C000D5F80C110A43C5F80C2105F1300003EBDB
:1020D00083039A0031461044FFF76BFBE26AD5F8A0
:1020E0000031DB6A9A42D7D34FF08052044B1A601A
:1020F000BFF34F8FBFF36F8FCEE700BF24000020E8
:1021000004ED00E000B583B0174B0193002300936A
:10211000802216491648FFF77FFF012805D0B0F14D
:10212000FF3F17D003B05DF804FB4FF0500383F37B
:102130001188BFF36F8FBFF34F8F0E4B4FF0FF32FD
:10214000DA620122C3F804210022C3F8102100F052
:10215000CDFCE7E74FF0500383F31188BFF36F8F97
:10216000BFF34F8FFEE700BF400100207040000822
:102170004D24000824000020034AD2F8183101330E
:10218000C2F81831704700BF2400002008B500F0E5
:1021900021FD024BD3F8100108BD00BF2400002030
:1021A0002DE9F041424BD3F81831002B70D1404B50
:1021B000D3F810510135C3F81051CDB99B6A1B6893
:1021C00043B14FF0500383F31188BFF36F8FBFF318
:1021D0004F8FFEE7364B9A6AD3F8F8109962C3F82E
:1021E000F820D3F820210132C3F82021FFF7EEFDBB
:1021F0002F4BDB6A9D423FD200242D4AD2F800319A
:10220000DB6A03EB830399000A44136B012B46D965
:10221000012444E00124264B9B6A1B6873B300230E
:1022200073BB234B9B6ADB68DE6873689D422CD3CB
:1022300006F104084046FFF7E2FAB36A1BB106F163
:102240001800FFF7DCFAF36A01229A40184FD7F81A
:102250000C110A43C7F80C2107F1300003EB83038C
:102260009A0041461044FFF7A4FAF26AD7F8003109
:10227000DB6A9A42CED2CEE70024CCE70123CFE737
:102280004FF0FF320A4BDA62B7E7094AD362B4E78C
:10229000074AD2F824310133C2F824310024044B18
:1022A000D3F8283103B101242046BDE8F08100BFF6
:1022B000240000203A4BD3F8183143B94FF05003B3
:1022C00083F31188BFF36F8FBFF34F8FFEE770B5B5
:1022D00000F070FB324BD3F81821013AC3F81821F3
:1022E000D3F81831002B57D12D4BD3F8FC3023B93C
:1022F000002400F081FB204670BD0024284B5B6960
:102300002BB3274D2B6ADC6804F11800FFF777FA2E
:10231000261D3046FFF773FAE36A01229A40D5F88A
:102320000C110A43C5F80C2105F1300003EB8303BF
:102330009A0031461044FFF73CFAE26AD5F80031C2
:10234000DB6A9A42DAD30122C5F82821D6E70CB11C
:10235000FFF73CFD124BD3F824417CB9104BD3F866
:102360002831DBB14FF080520E4B1A60BFF34F8F14
:10237000BFF36F8F0124BCE7013C08D0FFF710FFCB
:102380000028F9D00122064BC3F82821F4E70022E7
:10239000034BC3F82421E1E70024AAE70024A8E7BF
:1023A0002400002004ED00E010B5B0B10446104B4D
:1023B000D3F8183143B14FF0500383F31188BFF3C2
:1023C0006F8FBFF34F8FFEE7FFF7D6FE0021204649
:1023D000FFF7DEFDFFF76EFF00E0002038B94FF099
:1023E0008052044B1A60BFF34F8FBFF36F8F10BD45
:1023F0002400002004ED00E038B5134BD3F814316D
:102400000BB3FFF7B9FE104BD3F8E440FFF752FFD0
:10241000002CF2D000F0CEFA0B4CD4F8F030DD688E
:10242000281DFFF7ECF9D4F8FC30013BC4F8FC3070
:10243000D4F81431013BC4F8143100F0DDFA284619
:10244000FFF7DAFCD9E738BD2400002008B5FFF714
:10245000D3FF064B1B6B012BF9D94FF08052044B75
:102460001A60BFF34F8FBFF36F8FF0E72400002097
:1024700004ED00E0224BD3F81831CBB9204A0023F9
:10248000C2F82831D2F80C31B3FA83F3DBB2C3F1CE
:102490001F0303EB830081000A44126B6AB94FF0FB
:1024A000500383F31188BFF36F8FBFF34F8FFEE7A5
:1024B0000122134BC3F82821704710B4104A990029
:1024C000CC18A0001044446B646844633032194453
:1024D000880001460830024494420BD0084903EBBF
:1024E00083039A000A44536BDB68C1F800315DF83E
:1024F000044B70476068024A0A445063EEE700BF2D
:102500002400002070B5044600F054FA64B3251D81
:102510002846FFF774F988B9E26A02EB8203990052
:102520002B4B0B441B6B4BB9012303FA02F22849D6
:10253000D1F80C3123EA0203C1F80C31A36A1BB1B4
:1025400004F11800FFF75BF9214E29463046FFF7EA
:1025500030F900F051FAD6F804314BB91C4BD3F8DE
:1025600000319C420BD070BD194BD3F80041CEE72F
:1025700000F020FAFFF72AFC00F03EFAEEE7144BD9
:10258000D3F80431ABB1124BD3F8183143B14FF04B
:10259000500383F31188BFF36F8FBFF34F8FFEE7B4
:1025A0004FF080520B4B1A60BFF34F8FBFF36F8F0A
:1025B00070BD074B1A68D3F8FC309A4204D1002250
:1025C000034BC3F8002170BDFFF754FFCBE700BFFA
:1025D0002400002004ED00E040B94FF0500383F3E5
:1025E0001188BFF36F8FBFF34F8FFEE710B50C4616
:1025F000054BD3F800111831FFF7E7F80121204609
:10260000FFF7C6FC10BD00BF2400002038B5C3682A
:10261000DC684CB304F118052846FFF7F0F81A4BB4
:10262000D3F818314BBB251D2846FFF7E8F8E36ABD
:1026300001219940144AD2F80C010143C2F80C114F
:10264000303203EB8303980029461044FFF7B1F8BA
:10265000E26A0D4BD3F80031DB6A9A4212D90120AD
:10266000094BC3F8280138BD4FF0500383F311889C
:10267000BFF36F8FBFF34F8FFEE729460348FFF785
:1026800098F8E5E7002038BD24000020380000203D
:1026900038B1084AD2F820110160D2F81021426006
:1026A00070474FF0500383F31188BFF36F8FBFF370
:1026B0004F8FFEE72400002038B5D0B1044609B39F
:1026C0000D4600F077F91B4BD3F810112B68B3F1CE
:1026D000FF3F2BD02068174AD2F82021904202D029
:1026E0006268914224D26268881A834213D8012416
:1026F00018E04FF0500383F31188BFF36F8FBFF3DF
:102700004F8FFEE74FF0500383F31188BFF36F8FB5
:10271000BFF34F8FFEE7521A13442B602046FFF79A
:10272000B7FF002400F068F9204638BD0024F9E71F
:102730000124F7E7240000200122024BC3F82821DE
:10274000704700BF24000020064BD3F804312BB1A2
:10275000044BD3F818311BB9022070470120704791
:10276000002070472400002000284FD038B50546CF
:10277000C36A2749D1F80011C96A8B4218D281690E
:10278000002906DB2249D1F80011C96AC1F107010D
:102790008161686903EB830399001E4B0B449842E7
:1027A00007D000233BB91A4BD3F80031DB6AEB6248
:1027B00038BD0123F6E72C1D2046FFF720F880B92D
:1027C000EA6A02EB82039900114B0B441B6B43B97D
:1027D000012393400E49D1F80C2122EA0302C1F8EB
:1027E0000C210B48D0F80031DB6AEB6201229A40E1
:1027F000D0F80C110A43C0F80C21303003EB8303EE
:102800009A0021461044FEF7D4FF38BD704700BF40
:102810002400002054000020002850D038B5044681
:102820002A4AD2F80021904208D04FF0500383F397
:102830001188BFF36F8FBFF34F8FFEE7826C42B9F1
:102840004FF0500383F31188BFF36F8FBFF34F8FA7
:10285000FEE7013A8264C06A616C884231D092BB63
:10286000251D2846FEF7CBFF88B9E26A02EB8203FA
:102870009900164B0B441B6B4BB9012303FA02F270
:102880001249D1F80C3123EA0203C1F80C31636C10
:10289000E362C3F10702A261012404FA03F10B4AC7
:1028A000D2F80C010143C2F80C11303203EB830360
:1028B000980029461044FEF77CFF204638BD0020D2
:1028C0007047002038BD002038BD00BF2400002024
:1028D000064BD3F800312BB1044BD3F80021936C95
:1028E00001339364014BD3F80001704724000020AA
:1028F0000B4B1B68B3F1FF3F08D04FF0500383F33D
:102900001188BFF36F8FBFF34F8FFEE74FF0500377
:1029100083F31188BFF36F8FBFF34F8FFEE700BFC4
:102920000000002006480068006880F3088862B64E
:1029300061B6BFF34F8FBFF36F8F00DF00BF0000A2
:1029400008ED00E0DFF80C00016841F4700101605F
:102950007047000088ED00E04FF0807340F8043CC1
:1029600021F0010140F8081C054B40F80C3C40F8F0
:10297000202C6FF0020340F8243C4438704700BF1D
:10298000F128000800000000000000000000000026
:10299000074B19680868B0E8F04F80F30988BFF367
:1029A0006F8F4FF0000080F311887047AFF3008005
:1029B000240100204FF0500383F31188BFF36F8F81
:1029C000BFF34F8F0A4A136801331360012B0DD1F7
:1029D000084B1B6813F0FF0F08D04FF0500383F330
:1029E0001188BFF36F8FBFF34F8FFEE7704700BFB3
:1029F0000000002004ED00E0094B1B6843B94FF0D4
:102A0000500383F31188BFF36F8FBFF34F8FFEE73F
:102A1000013B034A13600BB983F31188704700BF71
:102A20000000002000000000000000000000000086
:102A3000EFF30980BFF36F8F154B1A681EF0100F6C
:102A400008BF20ED108A20E9F04F10604DF8043DDA
:102A50004FF0500080F31188BFF34F8FBFF36F8F9B
:102A6000FFF708FD4FF0000080F3118808BC1968DB
:102A70000868B0E8F04F1EF0100F08BFB0EC108AE5
:102A800080F30988BFF36F8F704700BFAFF30080FA
:102A90002401002008B54FF0500383F31188BFF3E1
:102AA0006F8FBFF34F8FFFF77BFB18B14FF0805252
:102AB000024B1A60002383F3118808BD04ED00E087
:102AC000064B1B68064AA2FB03239B09013B054AF0
:102AD00013600722044B1A60704700BF04000020F7
:102AE000D34D621014E000E010E000E0314B1A68B2
:102AF000314B9A4219D02F4B1A68304B9A421DD055
:102B000000B583B02E4B1A78D2B20192FF221A7010
:102B10001B78DBB28DF803309DF8033003F05003CF
:102B2000284A1370072353601BE04FF0500383F3D0
:102B30001188BFF36F8FBFF34F8FFEE74FF0500345
:102B400083F31188BFF36F8FBFF34F8FFEE71D4AEA
:102B50005368013B53609DF803305B00DBB28DF896
:102B600003309DF8033013F0800FF0D1154A5368FD
:102B70001B0203F4E0635360019BDBB2104A137045
:102B8000114B1A6842F470021A601A6842F07042DF
:102B90001A60FFF795FF00220C4B1A60FFF7D2FE78
:102BA0000B4A136843F040431360FFF7BBFEFFF787
:102BB0009FFE00BF00ED00E071C20F4170C20F41E7
:102BC00000E400E05001002020ED00E000000020C3
:102BD00034EF00E0EFF305830F2B0FD9104A9B5C15
:102BE000DBB2104A1278934208D24FF0500383F3BD
:102BF0001188BFF36F8FBFF34F8FFEE70A4B1B683F
:102C000003F4E063074A5268934208D94FF0500337
:102C100083F31188BFF36F8FBFF34F8FFEE77047C9
:102C2000F0E300E0500100200CED00E0134A12F048
:102C3000070F20D0D11D21F00701C1F570531344B7
:102C40000A460F49C1F818290020C1F81C0913448D
:102C5000083B23F00703C1F8203958601860981A20
:102C600050601360C1F82409C1F828094FF00043EF
:102C7000C1F82C3970474FF47053E2E75801002037
:102C80004034002010B4134B1A6882421CD3596898
:102C90005C18A04203D1406801445960184641685D
:102CA0004418A24214D10C4CD4F82049A2420DD0B1
:102CB0005268114441601A6812680260984200D05C
:102CC00018605DF8044B70471346DDE70460F5E7D4
:102CD0000260F3E7583D00204034002070B5044600
:102CE000FFF74AFA3F4BD3F82039C3B13D4BD3F835
:102CF0002C391C426CD1ACB1083414F0070F11D040
:102D000024F00704083404F007035BB14FF05003CC
:102D100083F31188BFF36F8FBFF34F8FFEE7FFF789
:102D200085FFE3E7002C55D02E4BD3F828399C4281
:102D300052D82C4BD3F8185903F6181301E02B4640
:102D400015466A68944202D92A68002AF7D1254AB2
:102D5000D2F82029954241D01E6808362A681A60A8
:102D60006B681B1B102B10D9281910F0070F08D007
:102D70004FF0500383F31188BFF36F8FBFF34F8F72
:102D8000FEE743606C60FFF77DFF6968154AD2F883
:102D900028395B1AC2F82839D2F82429934202D282
:102DA000104AC2F824390F4BD3F82C390B436B600F
:102DB00000232B60FFF77EFA16F0070F10D04FF0BC
:102DC000500383F31188BFF36F8FBFF34F8FFEE77C
:102DD0000026EFE70026EDE70026EBE70026E9E70F
:102DE000304670BD4034002098B338B50446A0F199
:102DF000080550F8042C1749D1F82C190A4208D1BB
:102E00004FF0500383F31188BFF36F8FBFF34F8FE1
:102E1000FEE750F8080C40B14FF0500383F31188DF
:102E2000BFF36F8FBFF34F8FFEE722EA010244F832
:102E3000042CFFF7A1F954F8041C064AD2F82839EB
:102E40000B44C2F828392846FFF71CFFFFF732FA77
:102E500038BD70474034002030B589B0002400945C
:102E6000184B1A6B42F080021A631A6B02F0800250
:102E70000092009A01941A6B42F001021A631A6BD5
:102E800002F001020192019A02941A6B42F00202CE
:102E90001A631B6B03F002030293029B0A4D224646
:102EA0004FF4D0412846FDF7E1FD4FF4D0430393A2
:102EB000012304930594069403A92846FDF7F0FC2A
:102EC00009B030BD00380240000402402DE9F04F47
:102ED0008DB0FFF75BF904464FF40061A948FDF798
:102EE000CBFD4FF49670FEF73EFCFFF74FF95B23E6
:102EF0008DF8043070238DF8053069238DF8063085
:102F000073238DF8073063238DF8083061238DF823
:102F100009304C238DF80A3065238DF80B30642678
:102F20008DF80C604FF05F0E8DF80DE0630ADFF84E
:102F300098B2ABFB0323DB0903F130028DF80E20BE
:102F4000DFF888A20AFB13428F49A1FB02435B0E04
:102F500003F130048DF80F408C4C04FB13248C4B90
:102F6000A3FB04239B0D03F130028DF81020894A46
:102F700002FB1342884BA3FB02439B0C03F130047A
:102F80008DF81140854C04FB13246309844AA2FB8D
:102F90000323DB0903F130028DF81220814A02FB82
:102FA0001342814BA3FB02435B0B03F130048DF80A
:102FB000134042F2107909FB13247C4FA7FB042332
:102FC0009B0903F130028DF814204FF47A7C0CFB3E
:102FD0001342774DA5FB02435B0903F130048DF8E2
:102FE000154006FB1328734BA3FB0842D20802F1DD
:102FF00030048DF8164002EB82025400A8EB040462
:1030000030348DF817408DF818E0420AABFB022BE4
:103010004FEADB1B0BF130028DF819200AFB1B0273
:10302000A1FB0201490E01F130008DF81A0057484A
:1030300000FB1120564AA2FB0012920D02F1300152
:103040008DF81B10534901FB1201534AA2FB0102E8
:10305000920C02F130008DF81C00504800FB121059
:1030600042094F49A1FB0212D20902F130018DF849
:103070001D104C4901FB12014B4AA2FB0102520BED
:1030800002F130008DF81E0009FB1214A7FB041298
:10309000920902F130018DF81F100CFB1240A5FBC4
:1030A0000012520902F130018DF8201006FB1201C6
:1030B000A3FB0123DB0803F130028DF8212003EB91
:1030C00083035A008A1A30328DF822208DF823E0CB
:1030D000394B196887FB0137CB17C3EBA71707F1EB
:1030E00030038DF824300CFB171285FB0231D31707
:1030F000C3EB611303F130018DF8251006FB13209B
:103100002E4B83FB0021C217C2EBA10202F130015A
:103110008DF8261002EB82025100411A30318DF8F1
:1031200027108DF828E0264A106885FB0025C21775
:10313000C2EB651505F130028DF8292006FB15015B
:1031400083FB0132CB17C3EBA20303F130028DF8EE
:103150002A2003EB83035A008A1A30328DF82B2081
:103160005D238DF82C300A238DF82D3000231A466C
:1031700001A914480068FEF767FC0120FEF7F3FA86
:10318000A7E600BF00040240893BE65500E1F505D3
:103190006BCA5F6B8096980083DE1B4340420F0032
:1031A000C55A7C0AA08601005917B7D1D34D6210C9
:1031B0001F85EB51CDCCCCCC103E002067666666F7
:1031C000783D0020C43D0020834B040000CA9A3B98
:1031D0002DE9F04F8DB0FEF7D9FF0446AE4D012228
:1031E0004FF480412846FDF741FC01224FF4005185
:1031F0002846FDF73BFCFEF7C9FF5B238DF8043042
:1032000073238DF8053070238DF806306F238DF809
:10321000073072238DF8083061238DF80930642659
:103220008DF80A6069238DF80B3063238DF80C301C
:103230004FF05F0E8DF80DE0630ADFF8A4B2ABFB30
:103240000323DB0903F130028DF80E20DFF894A28E
:103250000AFB13429149A1FB02435B0E03F13004C8
:103260008DF80F408E4C04FB13248E4BA3FB0423DC
:103270009B0D03F130028DF810208B4A02FB1342A4
:103280008A4BA3FB02439B0C03F130048DF81140E1
:10329000874C04FB13246309864AA2FB0323DB0942
:1032A00003F130028DF81220834A02FB1342834B54
:1032B000A3FB02435B0B03F130048DF8134042F291
:1032C000107909FB13247E4FA7FB04239B0903F10C
:1032D00030028DF814204FF47A7C0CFB1342794DA8
:1032E000A5FB02435B0903F130048DF8154006FB92
:1032F0001328754BA3FB0842D20802F130048DF865
:10330000164002EB82025400A8EB040430348DF81E
:1033100017408DF818E0420AABFB022B4FEADB1B8B
:103320000BF130028DF819200AFB1B02A1FB0201F0
:10333000490E01F130008DF81A00594800FB1120A8
:10334000584AA2FB0012920D02F130018DF81B10B9
:10335000554901FB1201554AA2FB0102920C02F1F0
:1033600030008DF81C00524800FB121042095149F0
:10337000A1FB0212D20902F130018DF81D104E4955
:1033800001FB12014D4AA2FB0102520B02F1300077
:103390008DF81E0009FB1214A7FB0412920902F11A
:1033A00030018DF81F100CFB1240A5FB00125209D2
:1033B00002F130018DF8201006FB1201A3FB01235E
:1033C000DB0803F130028DF8212003EB83035A0060
:1033D0008A1A30328DF822208DF823E03B4B196891
:1033E00087FB0137CB17C3EBA71707F130038DF825
:1033F00024300CFB171285FB0231D317C3EB61138A
:1034000003F130018DF8251006FB1320304B83FBB0
:103410000021C217C2EBA10202F130018DF8261083
:1034200002EB82025100411A30318DF827108DF8DD
:1034300028E0284A106885FB0025C217C2EB6515F5
:1034400005F130028DF8292006FB150183FB0132BE
:10345000CB17C3EBA20303F130028DF82A2003EB54
:1034600083035A008A1A30328DF82B205D238DF8A1
:103470002C300A238DF82D3000231A4601A9164856
:103480000068FEF7E1FA0120FEF76DF9134B1868AA
:10349000FFF738F89FE600BF00040240893BE6557D
:1034A00000E1F5056BCA5F6B8096980083DE1B43D5
:1034B00040420F00C55A7C0AA08601005917B7D1B7
:1034C000D34D62101F85EB51CDCCCCCC103E0020EB
:1034D00067666666783D0020C43D0020743D00208C
:1034E000834B040000CA9A3B2DE9F04F8DB058E1A0
:1034F000B748FDF705F8B74B1A68642303FB02F3DE
:10350000002BC0F262811B13B34A1360FEF73EFE2C
:103510005B238DF804306C238DF8053065238DF81E
:10352000063053228DF807208DF808306E238DF871
:10353000093073238DF80A306F238DF80B30722316
:103540008DF80C304FF05F0E8DF80DE0630ADFF858
:10355000C4B2ABFB0323DB0903F130028DF80E206C
:10356000DFF8B4A20AFB13429C49A1FB02435B0EA5
:1035700003F130048DF80F40994C04FB1324994B50
:10358000A3FB04239B0D03F130028DF81020964A13
:1035900002FB1342954BA3FB02439B0C03F1300447
:1035A0008DF81140924C04FB13246309914AA2FB4D
:1035B0000323DB0903F130028DF812208E4A02FB4F
:1035C00013428E4BA3FB02435B0B03F130048DF8D7
:1035D000134042F2107909FB1324894EA6FB042301
:1035E0009B0903F130028DF814204FF47A7C0CFB18
:1035F0001342844DA5FB02435B0903F130048DF8AF
:103600001540642707FB13287F4BA3FB0842D20811
:1036100002F130048DF8164002EB82025400A8EB50
:10362000040430348DF817408DF818E0420AABFBE3
:10363000022B4FEADB1B0BF130028DF819200AFB3D
:103640001B02A1FB0201490E01F130008DF81A00A6
:10365000634800FB1120634AA2FB0012920D02F1A5
:1036600030018DF81B10604901FB12015F4AA2FB7B
:103670000102920C02F130008DF81C005C4800FB46
:10368000121042095B49A1FB0212D20902F130017A
:103690008DF81D10584901FB1201584AA2FB010286
:1036A000520B02F130008DF81E0009FB1214A6FB2C
:1036B0000412920902F130018DF81F100CFB124028
:1036C000A5FB0012520902F130018DF8201007FB12
:1036D0001201A3FB0123DB0803F130028DF8212046
:1036E00003EB83035A008A1A30328DF822208DF8BA
:1036F00023E0384B196886FB0136CB17C3EBA616BF
:1037000006F130038DF824300CFB161285FB0231D4
:10371000D317C3EB611303F130018DF8251007FBBC
:1037200013203A4B83FB0021C217C2EBA10202F126
:1037300030018DF8261002EB82025100411A30311F
:103740008DF827108DF828E0234A106885FB0025A6
:10375000C217C2EB651505F130028DF8292007FB71
:10376000150183FB0132CB17C3EBA20303F1300237
:103770008DF82A2003EB83035A008A1A30328DF821
:103780002B205D238DF82C300A238DF82D3000235B
:103790001A4601A91E480068FEF756F93220FDF7C7
:1037A000E2FFFEF7F3FC0446094D2846FCF72CFE29
:1037B0000F492846FCF7C4FE00287FF499AE28463E
:1037C000FCF719FF034B186092E603F6FF739AE6C5
:1037D0007C3D0020103E0020783D0020893BE655CE
:1037E00000E1F5056BCA5F6B8096980083DE1B4392
:1037F00040420F00C55A7C0AA08601005917B7D174
:10380000D34D62101F85EB51CDCCCCCC676666667C
:10381000C43D0020834B040000CA9A3B2DE9F04FC1
:103820008DB057E1B24D00224FF480412846FDF79C
:103830001DF900224FF400512846FDF717F9FEF755
:10384000A5FC5B238DF8043063238DF805306F23CE
:103850008DF806306E228DF8072074228DF808202E
:1038600072228DF809208DF80A306C238DF80B3008
:1038700065238DF80C304FF05F0E8DF80DE0630A74
:10388000DFF8B4B2ABFB0323DB0903F130028DF8A0
:103890000E20DFF8A8A20AFB13429649A1FB0243BF
:1038A0005B0E03F130048DF80F40934C04FB13249E
:1038B000924BA3FB04239B0D03F130028DF81020E3
:1038C0008F4A02FB13428F4BA3FB02439B0C03F175
:1038D00030048DF811408C4C04FB132463098B4A8F
:1038E000A2FB0323DB0903F130028DF81220884A82
:1038F00002FB1342874BA3FB02435B0B03F1300433
:103900008DF8134042F2107909FB1324824EA6FB76
:1039100004239B0903F130028DF814204FF47A7CC4
:103920000CFB13427D4DA5FB02435B0903F1300400
:103930008DF81540642707FB1328794BA3FB084239
:10394000D20802F130048DF8164002EB82025400D6
:10395000A8EB040430348DF817408DF818E0420AC3
:10396000ABFB022B4FEADB1B0BF130028DF8192069
:103970000AFB1B02A1FB0201490E01F130008DF888
:103980001A005D4800FB11205C4AA2FB0012920D58
:1039900002F130018DF81B10594901FB1201594AFF
:1039A000A2FB0102920C02F130008DF81C00564877
:1039B00000FB121042095549A1FB0212D20902F183
:1039C00030018DF81D10524901FB1201514AA2FB32
:1039D0000102520B02F130008DF81E0009FB121497
:1039E000A6FB0412920902F130018DF81F100CFBA6
:1039F0001240A5FB0012520902F130018DF820108F
:103A000007FB1201A3FB0123DB0803F130028DF851
:103A1000212003EB83035A008A1A30328DF82220CA
:103A20008DF823E03F4B196886FB0136CB17C3EBBB
:103A3000A61606F130038DF824300CFB161285FB18
:103A40000231D317C3EB611303F130018DF8251058
:103A500007FB1320344B83FB0021C217C2EBA102EA
:103A600002F130018DF8261002EB82025100411A5A
:103A700030318DF827108DF828E02C4A106885FB2E
:103A80000025C217C2EB651505F130028DF829201B
:103A900007FB150183FB0132CB17C3EBA20303F134
:103AA00030028DF82A2003EB83035A008A1A303241
:103AB0008DF82B205D238DF82C300A238DF82D30C6
:103AC00000231A4601A91A480068FDF7BDFF14201B
:103AD000FDF749FEFEF75AFB0446144B1B68132BF7
:103AE0007FF7A0AE134B1868FEF7C8FAA7E600BF31
:103AF00000040240893BE65500E1F5056BCA5F6BA7
:103B00008096980083DE1B4340420F00C55A7C0A12
:103B1000A08601005917B7D1D34D62101F85EB5114
:103B2000CDCCCCCC103E002067666666783D002088
:103B3000C43D0020743D0020834B040000CA9A3B22
:103B400000B58DB002E00120FDF70DFE00236422D8
:103B500001A906480068FEF73BF80128F3D12A22A4
:103B600001A90348FDF7C3FCEDE700BFC43D0020F9
:103B7000C83D0020FEE7000008B50B480B4B036072
:103B80004FF4E133436000238360C36003610C2280
:103B900042618361C361FDF77BFC00B908BD40F25F
:103BA0002B110348FFF7E6FFC83D0020004C004002
:103BB0007840000800B585B01548164B0360002317
:103BC00043608360036183610362C362124A82625D
:103BD000C3600122C26103634261FCF7EBFB68B979
:103BE00002230093012301930023029369460848AE
:103BF000FCF704FD38B905B05DF804FB4FF487719C
:103C00000648FFF7B7FF4FF48C710448FFF7B2FF87
:103C10007C3D0020002001400100000F784000089A
:103C200000B595B000230193234A116C41F08051F7
:103C30001164126C02F080520192019A02931F4AA1
:103C4000116841F480411160126802F480420292CE
:103C5000029A0222089201220B9210220C920E93D9
:103C600008A8FCF70DFFF0B90F230393002104917E
:103C700005910691079103A8FDF724F9B8B9FDF75E
:103C8000EFF90F4BA3FB00308009FCF7CFFD0420B8
:103C9000FCF7E2FD00220F214FF0FF30FCF788FD1A
:103CA00015B05DF804FBDB210648FFF763FFE9214F
:103CB0000448FFF75FFF00BF00380240007000407B
:103CC000D34D62107840000880B59CB0FCF7ACFA88
:103CD000FFF7A6FFFFF7C0F8FFF74EFFFFF76AFFF9
:103CE000294C17AD26460FCE0FC533682B60002137
:103CF00017A8FDF71EFD254B186012AD04F1140640
:103D00000FCE0FC533682B60002112A8FDF711FDFF
:103D10001F4F38600DAD04F128060FCE0FC5336874
:103D20002B6000210DA8FDF704FD1A4B186008ADAB
:103D300004F13C060FCE0FC533682B60002108A8A4
:103D4000FDF7F7FC144B186003AD04F150060FCEDD
:103D50000FC533682B60002103A8FDF7EAFC0F4B69
:103D6000186001AB643494E8030083E80300002189
:103D70001846FDF701FD0A4B18603868FEF7C2FBD4
:103D8000FDF7D2FCFEE700BFEC3F00080C3E002030
:103D9000743D0020083E0020143E0020183E002004
:103DA000C43D002008B50320FCF7F0FC00221146BA
:103DB0006FF00B00FCF7FCFC002211466FF00A00CC
:103DC000FCF7F6FC002211466FF00900FCF7F0FC4E
:103DD000002211466FF00400FCF7EAFC00221146B5
:103DE0006FF00300FCF7E4FC00220F216FF00100EC
:103DF000FCF7DEFC00220F214FF0FF30FCF7D8FC6F
:103E000008BD000002680F4B9A4200D0704700B511
:103E100087B00021009103F58C335A6C42F4807214
:103E20005A645B6C03F480730093009B042301933A
:103E300003230293039101A90348FCF731FD07B066
:103E40005DF804FB00200140000002400268154BB1
:103E50009A4200D0704710B586B00024009403F554
:103E6000F6331A6C42F400221A641B6C03F400232C
:103E70000093009B032301930222029201220392EA
:103E800004930823059301A90748FCF709FD22467E
:103E900005213420FCF78CFC3420FCF7BBFC06B079
:103EA00010BD00BF004C0040000002407047FEE71C
:103EB000FEE7FEE7FEE7704708B5FCF7CFF9FDF730
:103EC00062FC08BD08B50248FDF790FB08BD00BFC5
:103ED000C83D00200F49D1F8883043F47003C1F881
:103EE00088300D4B1A6842F001021A600020986079
:103EF0001A6822F0847222F480321A60074A5A60EB
:103F00001A6822F480221A60D8604FF000638B6038
:103F1000704700BF00ED00E0003802401030002480
:103F2000DFF834D0002103E00C4B5B5843500431E0
:103F30000B480C4B42189A42F6D30B4A02E000237E
:103F400042F8043B094B9A42F9D3FFF7C3FF00F054
:103F500011F8FFF7B9FE704700000220D0400008BA
:103F60000000002008000020080000201C3E002067
:103F7000FEE7000070B50D4E0D4CA41BA4100025EB
:103F8000A54209D10B4E0C4C00F024F8A41BA41040
:103F90000025A54205D170BD56F82530984701355A
:103FA000EEE756F8253098470135F2E7C84000089B
:103FB000C8400008C8400008CC40000810B5431EA7
:103FC0000A44914200D110BD11F8014B03F8014F92
:103FD000F7E70000F8B500BFF8BC08BC9E46704784
:0C3FE000F8B500BFF8BC08BC9E46704756
:103FEC00BC400008CD2E00080000000000000000BE
:103FFC0080000000AC400008D13100080300000034
:10400C000000000080000000A0400008E934000817
:10401C000000000000000000800000009440000838
:10402C001D380008000000000000000080000000A7
:10403C0088400008413B0008000000000000000020
:10404C0080000000800000002A000000000000003A
:10405C00000000000102030406070809000000002C
:10406C000102030449444C45000000002E2E2F533E
:10407C0072632F6D61696E2E630000006761746559
:10408C004B656570657200007461736B436F6E7481
:10409C00726F6C007265616453656E736F720000B1
:1040AC007461736B53706F7261646963000000001C
:0C40BC0070697363614C656400000000D3
:0440C800B501000836
:0440CC009101000856
:0840D000AAAAAAAA0024F40028
:0400000508003F218F
:00000001FF
